:0A0AB400000102020303040405051B
:10033200E4F513F512F511F510C203C200C202C2B0
:100342000112058E7E077F008E238F24752B077581
:100352002C1275210775221C752907752A4A752DDD
:1003620007752E78EE54C0700302043175140075BF
:1003720015808E168F17C3749A9FFF74079ECF2421
:1003820002CF3400FEE48F0F8E0EF50DF50CF50B47
:10039200F50AF509F508AF0FAE0EAD0DAC0CAB0BBF
:1003A200AA0AA909A808C3120A985031AE0AAF0BCB
:1003B200E5172FF582E5163EF583E0FDE5152FF5ED
:1003C20082E5143EF583EDF0EF2401F50BE43EF5F2
:1003D2000AE43509F509E43508F50880B9851423DE
:1003E20085152474002480FF740734FFFEC3E52CB6
:1003F2009FF52CE52B9EF52BC3E5269FF526E525DB
:100402009EF525C3E5289FF528E5279EF527C3E538
:10041200229FF522E5219EF521C3E52A9FF52AE5D3
:10042200299EF529C3E52E9FF52EE52D9EF52DD2A9
:10043200E843D82090E668E04409F090E65CE044A6
:100442003DF0D2AF90E680E020E105D204120973BC
:1004520090E680E054F7F0538EF8C203120497300E
:100462000105120080C2013003F21206FE50EDC2F5
:10047200031209F920001690E682E030E704E0203A
:10048200E1EF90E682E030E604E020E0E41209A227
:05049200120AD280C730
:0B0AA90090E50DE030E402C322D322F0
:1000800090E6B9E0700302016A14700302021324BF
:10009000FE70030202A924FB7003020164147003C2
:1000A00002015E147003020152147003020158240D
:1000B00005600302031E120AD4400302032A90E6DD
:1000C000BBE024FE603B14605624FD6016146040C3
:1000D00024067074E52390E6B3F0E52490E6B4F0CE
:1000E00002032A120AA9500FE52B90E6B3F0E52C83
:1000F00090E6B4F002032A90E6A0E04401F0020387
:100100002AE52590E6B3F0E52690E6B4F002032A4E
:10011000E52790E6B3F0E52890E6B4F002032A90D4
:10012000E6BAE0FF1209CEAA06A9077B01EA4960F8
:100130000DEE90E6B3F0EF90E6B4F002032A90E6FD
:10014000A0E04401F002032A90E6A0E04401F0029E
:10015000032A120A7402032A120AC602032A120A86
:10016000BE02032A120A6202032A120AD6400302BE
:10017000032A90E6B8E0247F602B14603C240260E0
:1001800003020209A200E433FF25E0FFA202E433E8
:100190004F90E740F0E4A3F090E68AF090E68B748D
:1001A00002F002032AE490E740F0A3F090E68AF020
:1001B00090E68B7402F002032A90E6BCE0547EFFC6
:1001C0007E00E0D3948040067C007D0180047C00AA
:1001D0007D00EC4EFEED4F24B4F582740A3EF583AB
:1001E000E493FF3395E0FEEF24A1FFEE34E68F8227
:1001F000F583E0540190E740F0E4A3F090E68AF044
:1002000090E68B7402F002032A90E6A0E04401F02D
:1002100002032A120AD8400302032A90E6B8E02417
:10022000FE601D2402600302032A90E6BAE0B401D6
:1002300005C20002032A90E6A0E04401F002032A6E
:1002400090E6BAE0705990E6BCE0547EFF7E00E094
:10025000D3948040067C007D0180047C007D00EC0E
:100260004EFEED4F24B4F582740A3EF583E493FF0D
:100270003395E0FEEF24A1FFEE34E68F82F583E0B4
:1002800054FEF090E6BCE05480FF131313541FFF9C
:10029000E0540F2F90E683F0E04420F002032A9010
:1002A000E6A0E04401F002032A120ADA507C90E64C
:1002B000B8E024FE60202402705B90E6BAE0B4014E
:1002C00004D200806590E6BAE06402605D90E6A02A
:1002D000E04401F0805490E6BCE0547EFF7E00E0F4
:1002E000D3948040067C007D0180047C007D00EC7E
:1002F0004EFEED4F24B4F582740A3EF583E493FF7D
:100300003395E0FEEF24A1FFEE34E68F82F583E023
:100310004401F0801590E6A0E04401F0800C120842
:1003200028500790E6A0E04401F090E6A0E0448069
:01033000F0DC
:0103310022A9
:03003300020ACEF0
:040ACE0053D8EF32D8
:100A86004210030000411002004110000041100115
:010A9600005F
:10058E0090E600E054E74410F090E601E04440F0BD
:10059E0090E61074A0F090E611F000000090E612C4
:1005AE0074A2F000000090E61374A0F0000000901A
:1005BE00E61474E2F000000090E61574E0F000001E
:1005CE000090E6917480F0000000F000000090E6CC
:0A05DE0095F0000000F043AF012289
:10049700E5AA20E076E5AA20E5717AF079007EF0FA
:1004A7007F0074F0F59A7400F59B7AF879007EF86E
:1004B7007F0074F8F59D7400F59E90E690E0FE903D
:1004C700E691E07C002400F51BEC3EF51AE4F518F4
:1004D700F519C3E519951BE518951A501290E67B97
:1004E700E090E67CF00519E51970E7051880E390C0
:1004F700E690E090E698F000000090E691E090E644
:1005070099F000000090E6917480F0E5AA20E27669
:10051700E5AA20E7717AF479007EF47F0074F4F598
:100527009A7400F59B7AFC79007EFC7F0074FCF5D9
:100537009D7400F59E90E694E0FE90E695E07C00C1
:100547002400F51BEC3EF51AE4F518F519C3E51977
:10055700951BE518951A501290E67BE090E67CF023
:100567000519E51970E7051880E390E694E090E631
:100577009CF000000090E695E090E69DF0000000FA
:0605870090E6957480F07F
:01058D00224B
:0206FE00D32205
:020AD200D3222D
:020AD400D3222B
:080ABE0090E6BAE0F51DD32219
:100A620090E740E51DF0E490E68AF090E68B04F012
:020A7200D3228D
:080AC60090E6BAE0F51CD32212
:100A740090E740E51CF0E490E68AF090E68B04F001
:020A8400D3227B
:020AD600D32229
:020AD800D32227
:020ADA00D32225
:1008280090E6B9E02441602924EE601404703B90FE
:10083800E604E0F518431880000000E518F0802C65
:1008480090E604E0F51853187F000000E518F080E2
:100858001B90E74074BFF0E490E68AF090E68B04C2
:0D086800F090E6A0E04480F08002C322C3BF
:010875002260
:1005E800C0E0C083C082D2015391EF90E65D7401F0
:0805F800F0D082D083D0E03284
:100A3600C0E0C083C0825391EF90E65D7404F0D0AD
:060A460082D083D0E032F3
:100A4C00C0E0C083C0825391EF90E65D7402F0D099
:060A5C0082D083D0E032DD
:10093D00C0E0C083C082852925852A26852682852B
:10094D002583A37402F08521278522288528828599
:10095D002783A37407F05391EF90E65D7410F0D0E8
:06096D0082D083D0E032CD
:100A1E00C0E0C083C082D2035391EF90E65D7408AC
:080A2E00F0D082D083D0E03249
:10090000C0E0C083C08290E680E030E720852125EA
:10091000852226852682852583A37402F0852927D2
:10092000852A28852882852783A37407F05391EFB1
:0D09300090E65D7420F0D082D083D0E032DC
:010ADC0032E7
:010ADD0032E6
:010ADE0032E5
:010ADF0032E4
:010AE00032E3
:010AE10032E2
:010AE20032E1
:010AE30032E0
:010AE40032DF
:010AE50032DE
:010AE60032DD
:010AE70032DC
:010AE80032DB
:010AE90032DA
:010AEA0032D9
:010AEB0032D8
:010AEC0032D7
:010AED0032D6
:010AEE0032D5
:010AEF0032D4
:010AF00032D3
:010AF10032D2
:010AF20032D1
:010AF30032D0
:010AF40032CF
:010AF50032CE
:010AF60032CD
:010AF70032CC
:010AF80032CB
:010AF90032CA
:010AFA0032C9
:010AFB0032C8
:010AFC0032C7
:010AFD0032C6
:010AFE0032C5
:010AFF0032C4
:10087600EF30E00D908000E0901000F0A3E054FE11
:10088600F0EF30E10D909000E0901000F0A3E054FE
:10089600FDF0EF30E20D90A000E0901000F0A3E034
:1008A60054FBF0EF30E30D90B000E0901000F0A3A1
:0508B600E054F7F02200
:1008BB00EF30E00D908800E0901000F0A3E04401D1
:1008CB00F0EF30E10D909800E0901000F0A3E044C1
:1008DB0002F0EF30E20D90A800E0901000F0A3E0E2
:1008EB004404F0EF30E30D90B800E0901000F0A35B
:0508FB00E04408F022BA
:100700001201000200000040B404041000000102C5
:1007100000010A06000200000040010009022E004C
:1007200001010080320904000004FF0000000705F9
:10073000020200020007050402000200070586020B
:100740000002000705880200020009022E000101D4
:100750000080320904000004FF00000007050202C7
:100760004000000705040240000007058602400023
:100770000007058802400000040309041003430039
:100780007900700072006500730073000E0345006D
:0C0790005A002D005500530042000000EC
:03004300020600B2
:03005300020600A2
:100600000205E800020A4C00020A3600020A1E0037
:1006100002093D0002090000020ADC00020ADD00B6
:10062000020ADE00020ADF00020AE000020AE1001C
:10063000020AE200020AE300020AE400020AE500FC
:10064000020AE600020ADD00020AE700020AE800E8
:10065000020AE900020AEA00020AEB00020AEC00C0
:10066000020AED00020ADD00020ADD00020ADD00D6
:10067000020AEE00020AEF00020AF000020AF1008C
:10068000020AF200020AF300020AF400020AF5006C
:10069000020AF600020AF700020AF800020AF9004C
:1006A000020AFA00020AFB00020AFC00020AFD002C
:0806B000020AFE00020AFF002D
:1009A20090E682E030E004E020E60B90E682E03060
:1009B200E119E030E71590E680E04401F07F147E13
:0C09C200001206B890E680E054FEF0221F
:1009730030040990E680E0440AF0800790E680E0C6
:100983004408F07FDC7E051206B890E65D74FFF044
:0F09930090E65FF05391EF90E680E054F7F0228A
:0209CE00A90777
:1009D000AE2DAF2E8F828E83A3E064037017AD011E
:1009E00019ED7001228F828E83E07C002FFDEC3E9A
:0809F000FEAF0580DFE4FEFF0D
:0109F80022DC
:1009F90090E682E044C0F090E681F0438701000070
:040A090000000022C7
:1006B8008E188F1990E600E054187012E51924017D
:1006C800FFE43518C313F518EF13F519801590E6F4
:1006D80000E05418FFBF100BE51925E0F519E518DF
:1006E80033F518E5191519AE18700215184E60057E
:0606F800120A0D80EE2243
:100A0D007400F58690FDA57C05A3E582458370F9FC
:010A1D0022B6
:0300000002079C58
:0C079C00787FE4F6D8FD75812E0207E39B
:100A9800EB9FF5F0EA9E42F0E99D42F0E89C45F0B4
:010AA800222B
:1007A800020332E493A3F8E493A34003F68001F232
:1007B80008DFF48029E493A3F85407240CC8C33352
:1007C800C4540F4420C8834004F456800146F6DF21
:1007D800E4800B0102040810204080900A86E47E21
:1007E800019360BCA3FF543F30E509541FFEE49316
:1007F800A360010ECF54C025E060A840B8E493A3DD
:10080800FAE493A3F8E493A3C8C582C8CAC583CA07
:10081800F0A3C8C582C8CAC583CADFE9DEE780BEBF
:010A9700005E
:00000001FF
