:0A08F20000010202030304040505DF
:10059A00E4F513F512F511F510C203C200C202C246
:1005AA00011209B87E017F008E238F24752B0175F5
:1005BA002C1275210175221C752901752A3C752D8D
:1005CA0001752E5C90E680E030E70E8521258522B4
:1005DA0026852927852A28800C852925852A268586
:1005EA002127852228EE54E0700302070D751400B6
:1005FA007515807E017F008E168F17C374EC9FFFDE
:10060A0074019ECF2402CF3400FEE48F0F8E0EF5C4
:10061A000DF50CF50BF50AF509F508AF0FAE0EADA1
:10062A000DAC0CAB0BAA0AA909A808C31208E15021
:10063A002AE515250BF582E514350AF58374CDF004
:10064A00E4FAF9F8E50B2401F50BEA350AF50AE9AB
:10065A003509F509E83508F50880C0E4F50BF50A0F
:10066A00F509F508AF0FAE0EAD0DAC0CAB0BAA0A2F
:10067A00A909A808C31208E15037E517250BF58226
:10068A00E516350AF583E0FFE515250BF582E51435
:10069A00350AF583EFF0E4FAF9F8E50B2401F50BD6
:1006AA00EA350AF50AE93509F509E83508F5088051
:1006BA00B385142385152474002480FF740134FF44
:1006CA00FEC3E52C9FF52CE52B9EF52BC3E5269F53
:1006DA00F526E5259EF525C3E5289FF528E5279EFD
:1006EA00F527C3E5229FF522E5219EF521C3E52AD8
:1006FA009FF52AE5299EF529C3E52E9FF52EE52DBE
:10070A009EF52DD2E843D82090E668E04409F0909F
:10071A00E65CE0443DF0D2AF90E680E020E105D20D
:10072A0005120E7390E680E054F7F0538EF8C20378
:10073A00300105120300C20130032912101250249D
:10074A00C203120F2520001690E682E030E704E08B
:10075A0020E1EF90E682E030E604E020E0E4120EC9
:09076A00CE121014120A5D80C7C2
:010773002263
:1003000090E6B9E070030203DC1470030204852454
:10031000FE700302051A24FB70030203D614700357
:100320000203D01470030203C41470030203CA242E
:10033000056003020586121016400302059290E63E
:10034000BBE024FE602C14604724FD60161460316D
:1003500024067066E52390E6B3F0E52490E6B4F059
:10036000020592E52B90E6B3F0E52C90E6B4F0029E
:100370000592E52590E6B3F0E52690E6B4F0020597
:1003800092E52790E6B3F0E52890E6B4F0020592F6
:1003900090E6BAE0FF120EFAAA06A9077B01EA4925
:1003A0004B600DEE90E6B3F0EF90E6B4F0020592EC
:1003B00090E6A0E04401F002059290E6A0E044013E
:1003C000F0020592120FF00205921210020205923D
:1003D000120C4A020592120FDE020592121018400A
:1003E0000302059290E6B8E0247F602B14603C2461
:1003F00002600302047BA200E433FF25E0FFA202B7
:10040000E4334F90E740F0E4A3F090E68AF090E602
:100410008B7402F0020592E490E740F0A3F090E6BE
:100420008AF090E68B7402F002059290E6BCE054EC
:100430007EFF7E00E0D3948040067C007D01800436
:100440007C007D00EC4EFEED4F24F2F58274083EF8
:10045000F583E493FF3395E0FEEF24A1FFEE34E64D
:100460008F82F583E0540190E740F0E4A3F090E63A
:100470008AF090E68B7402F002059290E6A0E044C8
:1004800001F002059212101A400302059290E6B89C
:10049000E024FE601D2402600302059290E6BAE0AB
:1004A000B40105C20002059290E6A0E04401F0020A
:1004B000059290E6BAE0705990E6BCE0547EFF7E6B
:1004C00000E0D3948040067C007D0180047C007DA8
:1004D00000EC4EFEED4F24F2F58274083EF583E405
:1004E00093FF3395E0FEEF24A1FFEE34E68F82F513
:1004F00083E054FEF090E6BCE05480FF13131354E5
:100500001FFFE0540F2F90E683F0E04420F0020537
:100510009290E6A0E04401F0807812101C50739095
:10052000E6B8E024FE60202402706790E6BAE0B4EA
:100530000104D200805C90E6BAE06402605490E668
:10054000A0E04401F0804B90E6BCE0547EFF7E00CA
:10055000E0D3948040067C007D0180047C007D0017
:10056000EC4EFEED4F24F2F58274083EF583E493E1
:10057000FF3395E0FEEF24A1FFEE34E68F82F58392
:10058000E04401F0800C120B87500790E6A0E04495
:0905900001F090E6A0E04480F0C7
:01059900223F
:030033000208FCC4
:0408FC0053D8EF32AC
:100100001201000200000040B404082000000102B7
:1001100000010A0600020000004001000902200060
:10012000010100A0320904000002FF0000000705E1
:1001300002020002000705860200020009022000F8
:10014000010100A0320904000002FF0000000705C1
:100150000202400000070586024000000403090473
:100160001003430079007000720065007300730093
:100170007C0345005A002D0055005300420020002A
:100180004600580032002000470050004900460059
:10019000200074006F0020004500780074002000EB
:1001A0004600490046004F002000450078006100ED
:1001B0006D0070006C006500200075007300690020
:1001C0006E0067002000530069006E0067006C003D
:1001D000650020005400720061006E007300610031
:0E01E0006300740069006F006E007300000081
:100EA200501A07C0F9A4B0999282F880988883C634
:100EB200A1868E421A030000411A0200421A0575E9
:0B0EC20030C104411A0000411A010079
:1009B80090E6007412F012100A901A057403F0A35E
:1009C80074E8F090E60174CFF090E61274A0F0009D
:1009D800000090E61474E0F0000000E490E613F0E4
:1009E80000000090E615F000000090E6047480F026
:1009F8000000007402F00000007406F000000074AB
:100A080004F00000007408F0000000E4F0000000AA
:100A180090E618F000000090E61AF000000090E65A
:100A2800497482F0000000F0000000F0000000F0BF
:100A380000000000000090E60274E0F00000009062
:100A4800E6037408F0000000E490E671F075B4065F
:050A5800C2A1C2A222B0
:100A5D0090E6A5E054F0FFC4540FFF2407F582E49F
:100A6D00341AAB82FA7D017F21120F667F21120DA0
:100A7D0067120BECD2A220A032E5AC20E12D90F94B
:100A8D00FB7405F0A314F0A314F0A314F0A314F059
:100A9D0000000000000090E69804F0000000E490D3
:100AAD00E699F0000000B2A130A0FDE5AA20E03DDE
:100ABD0000000090F1FF7401F000000090F1FE04C1
:100ACD00F000000090F1FD04F000000090F1FC0436
:100ADD00F000000090F1FB04F000000090E690742F
:0D0AED0002F0000000E490E691F00000002F
:010AFA0022D9
:02101200D322E7
:02101400D322E5
:02101600D322E3
:100C4A0090E680E030E71E90E6247402F00000008F
:100C5A0090E626F0000000E490E625F000000090FF
:100C6A00E627F0801CE490E624F000000090E626D7
:100C7A00F000000090E6257440F000000090E6279E
:090C8A00F090E6BAE0F530D32247
:100FDE0090E740E530F0E490E68AF090E68B04F07E
:020FEE00D3220C
:0810020090E6BAE0F52FD322BD
:100FF00090E740E52FF0E490E68AF090E68B04F06D
:02100000D322F9
:02101800D322E1
:02101A00D322DF
:02101C00D322DD
:100B870090E6B9E0244D603A04705890E60474800A
:100B9700F00000007402F0000000E4F00000009094
:100BA700E740E5ACF090E6ACE090E741F0E490E692
:100BB7008AF090E68B7402F090E6A0E04480F0D2D1
:100BC700042290E740E5ACF090E6ACE090E741F016
:100BD700E490E68AF090E68B7402F090E6A0E04499
:050BE70080F022D32282
:100F8200C0E0C083C082D2015391EF90E65D74014C
:080F9200F0D082D083D0E032E0
:100FB200C0E0C083C0825391EF90E65D7404F0D02C
:060FC20082D083D0E03272
:100FC800C0E0C083C0825391EF90E65D7402F0D018
:060FD80082D083D0E0325C
:100D9F00C0E0C083C08290E680E030E70E85212559
:100DAF00852226852927852A28800C852925852AAD
:100DBF00268521278522285391EF90E65D7410F048
:070DCF00D082D083D0E03296
:100F9A00C0E0C083C082D2035391EF90E65D74082B
:080FAA00F0D082D083D0E032C8
:100DD600C0E0C083C08290E680E030E70E85212522
:100DE600852226852927852A28800C852925852A76
:100DF600268521278522285391EF90E65D7420F001
:070E0600D082D083D0E0325E
:01101E00329F
:01101F00329E
:01102000329D
:01102100329C
:01102200329B
:01102300329A
:011024003299
:011025003298
:011026003297
:011027003296
:011028003295
:011029003294
:01102A003293
:01102B003292
:01102C003291
:01102D003290
:01102E00328F
:01102F00328E
:01103000328D
:01103100328C
:01103200328B
:01103300328A
:011034003289
:011035003288
:011036003287
:011037003286
:011038003285
:011039003284
:01103A003283
:01103B003282
:01103C003281
:01103D003280
:01103E00327F
:01103F00327E
:01104000327D
:01104100327C
:100C9300AD07ED30E00D908000E0901A00F0A3E086
:100CA30054FEF0ED30E10D909000E0901A00F0A3B7
:100CB300E054FDF0ED30E20D90A000E0901A00F05A
:100CC300A3E054FBF0ED30E30D90B000E0901A0088
:070CD300F0A3E054F7F0224A
:100CDA00AD07ED30E00D908800E0901A00F0A3E037
:100CEA004401F0ED30E10D909800E0901A00F0A375
:100CFA00E04402F0ED30E20D90A800E0901A00F016
:100D0A00A3E04404F0ED30E30D90B800E0901A003F
:070D1A00F0A3E04408F02201
:100BEC00E5AB20E1077F04120CDA80057F04120CC0
:100BFC0093E5AC20E0077F08120CDA80057F081221
:100C0C000C93901A03E475F0011208CBFE901A05B0
:100C1C00E0B50629A3E0B5F024901A02E0600C7F41
:100C2C0001120C93E4901A02F0800B7F01120CDA83
:0E0C3C00901A027401F0E4901A03F0A3F02263
:03004300020900AF
:030053000209009F
:10090000020F8200020FC800020FB200020F9A000D
:10091000020D9F00020DD60002101E0002101F00E3
:1009200002102000021021000210220002102300F9
:1009300002102400021025000210260002102700D9
:100940000210280002101F000210290002102A00C5
:1009500002102B0002102C0002102D0002102E009D
:1009600002102F0002101F0002101F0002101F00B3
:100970000210300002103100021032000210330069
:100980000210340002103500021036000210370049
:10099000021038000210390002103A0002103B0029
:1009A00002103C0002103D0002103E0002103F0009
:0809B00002104000021041009A
:100ECE0090E682E030E004E020E60B90E682E0302F
:100EDE00E119E030E71590E680E04401F07F147EE2
:0C0EEE0000120D2190E680E054FEF0227E
:100E730030050990E680E0440AF0800790E680E0C0
:100E83004408F07FDC7E05120D2190E65D74FFF0CF
:0F0E930090E65FF05391EF90E680E054F7F02285
:08100A00E4F51FD2E9D2AF2288
:100D6700AD0790E678E020E6F9C2E990E678E0443E
:100D770080F0ED25E090E679F090E678E030E0F954
:100D870090E678E04440F090E678E020E6F990E6D7
:080D970078E030E1D6D2E92238
:100E4100AC0790E678E020E6F9E51F702390E6789C
:100E5100E04480F0EC25E090E679F08D1AAF03A92B
:100E610007751B018A1C891DE4F51E751F01D3221C
:020E7100C3229A
:100E0D00AC0790E678E020E6F9E51F702590E678CE
:100E1D00E04480F0EC25E0440190E679F08D1AAFC6
:100E2D0003A907751B018A1C891DE4F51E751F0397
:040E3D00D322C322D7
:03004B0002077435
:10077400C0E0C083C082C085C084C086758600C0C6
:10078400D075D000C000C001C002C003C006C007BD
:1007940090E678E030E206751F0602085E90E6787F
:1007A400E020E10CE51F64026006751F0702085E85
:1007B400E51F24FE605F14603624FE700302084FB8
:1007C40024FC700302085B2408600302085EAB1B70
:1007D400AA1CA91DAF1E051E8F8275830012087CFA
:1007E40090E679F0E51E651A7070751F05806B90B0
:1007F400E679E0AB1BAA1CA91DAE1E8E8275830090
:100804001208A9751F02E51A6401704E90E678E09B
:100814004420F08045E51A24FEB51E0790E678E0F2
:100824004420F0E51A14B51E0A90E678E04440F03E
:10083400751F0090E679E0AB1BAA1CA91DAE1E8EA5
:10084400827583001208A9051E800F90E678E044A3
:1008540040F0751F008003751F005391DFD007D04F
:1008640006D003D002D001D000D0D0D086D084D01E
:0808740085D082D083D0E03270
:020EFA00A90746
:100EFC00AE2DAF2E8F828E83A3E064037017AD01ED
:100F0C0019ED7001228F828E83E07C002FFDEC3E68
:080F1C00FEAF0580DFE4FEFFDB
:010F240022AA
:100F4A00120E0DE51F24FA600E146006240770F3D2
:0C0F5A00D322E4F51FD322E4F51FD322BC
:100F6600120E41E51F24FA600E146006240770F382
:0C0F7600D322E4F51FD322E4F51FD322A0
:100F250090E682E044C0F090E681F043870100003E
:040F35000000002296
:100D21008E188F1990E600E054187012E51924010D
:100D3100FFE43518C313F518EF13F519801590E684
:100D410000E05418FFBF100BE51925E0F519E5186F
:100D510033F518E5191519AE18700215184E60050E
:060D6100120F3980EE22A2
:100F39007400F58690FDA57C05A3E582458370F9CB
:010F49002285
:03000000020AFBF6
:0C0AFB00787FE4F6D8FD758130020B42D4
:10087C00BB010CE58229F582E5833AF583E0225031
:10088C0006E92582F8E622BBFE06E92582F8E2227B
:0D089C00E58229F582E5833AF583E4932295
:1008A900F8BB010DE58229F582E5833AF583E8F085
:1008B900225006E92582C8F622BBFE05E92582C831
:0208C900F22219
:1008CB00C5F0F8A3E028F0C5F0F8E58215827002B8
:0608DB001583E038F02255
:1008E100EB9FF5F0EA9E42F0E99D42F0E89C45F06D
:0108F10022E4
:100B070002059AE493A3F8E493A34003F68001F265
:100B170008DFF48029E493A3F85407240CC8C333EF
:100B2700C4540F4420C8834004F456800146F6DFBE
:100B3700E4800B0102040810204080900EA2E47E9E
:100B4700019360BCA3FF543F30E509541FFEE493B3
:100B5700A360010ECF54C025E060A840B8E493A37A
:100B6700FAE493A3F8E493A3C8C582C8CAC583CAA5
:100B7700F0A3C8C582C8CAC583CADFE9DEE780BE5D
:010ECD000024
:00000001FF
